{
  "_format": "hh-sol-artifact-1",
  "contractName": "Blog",
  "sourceName": "contracts/Blog.sol",
  "abi": [
    {
      "inputs": [
        {
          "internalType": "string",
          "name": "_name",
          "type": "string"
        }
      ],
      "stateMutability": "nonpayable",
      "type": "constructor"
    },
    {
      "anonymous": false,
      "inputs": [
        {
          "indexed": false,
          "internalType": "uint256",
          "name": "id",
          "type": "uint256"
        },
        {
          "indexed": false,
          "internalType": "string",
          "name": "title",
          "type": "string"
        },
        {
          "indexed": false,
          "internalType": "string",
          "name": "hash",
          "type": "string"
        }
      ],
      "name": "PostCreated",
      "type": "event"
    },
    {
      "anonymous": false,
      "inputs": [
        {
          "indexed": false,
          "internalType": "uint256",
          "name": "id",
          "type": "uint256"
        },
        {
          "indexed": false,
          "internalType": "string",
          "name": "title",
          "type": "string"
        },
        {
          "indexed": false,
          "internalType": "string",
          "name": "hash",
          "type": "string"
        },
        {
          "indexed": false,
          "internalType": "bool",
          "name": "published",
          "type": "bool"
        }
      ],
      "name": "PostUpdated",
      "type": "event"
    },
    {
      "inputs": [
        {
          "internalType": "string",
          "name": "title",
          "type": "string"
        },
        {
          "internalType": "string",
          "name": "hash",
          "type": "string"
        }
      ],
      "name": "createPost",
      "outputs": [],
      "stateMutability": "nonpayable",
      "type": "function"
    },
    {
      "inputs": [
        {
          "internalType": "string",
          "name": "hash",
          "type": "string"
        }
      ],
      "name": "fetchPost",
      "outputs": [
        {
          "components": [
            {
              "internalType": "uint256",
              "name": "id",
              "type": "uint256"
            },
            {
              "internalType": "string",
              "name": "title",
              "type": "string"
            },
            {
              "internalType": "string",
              "name": "content",
              "type": "string"
            },
            {
              "internalType": "bool",
              "name": "published",
              "type": "bool"
            }
          ],
          "internalType": "struct Blog.Post",
          "name": "",
          "type": "tuple"
        }
      ],
      "stateMutability": "view",
      "type": "function"
    },
    {
      "inputs": [],
      "name": "fetchPosts",
      "outputs": [
        {
          "components": [
            {
              "internalType": "uint256",
              "name": "id",
              "type": "uint256"
            },
            {
              "internalType": "string",
              "name": "title",
              "type": "string"
            },
            {
              "internalType": "string",
              "name": "content",
              "type": "string"
            },
            {
              "internalType": "bool",
              "name": "published",
              "type": "bool"
            }
          ],
          "internalType": "struct Blog.Post[]",
          "name": "",
          "type": "tuple[]"
        }
      ],
      "stateMutability": "view",
      "type": "function"
    },
    {
      "inputs": [],
      "name": "name",
      "outputs": [
        {
          "internalType": "string",
          "name": "",
          "type": "string"
        }
      ],
      "stateMutability": "view",
      "type": "function"
    },
    {
      "inputs": [],
      "name": "owner",
      "outputs": [
        {
          "internalType": "address",
          "name": "",
          "type": "address"
        }
      ],
      "stateMutability": "view",
      "type": "function"
    },
    {
      "inputs": [
        {
          "internalType": "address",
          "name": "newOwner",
          "type": "address"
        }
      ],
      "name": "transferOwnership",
      "outputs": [],
      "stateMutability": "nonpayable",
      "type": "function"
    },
    {
      "inputs": [
        {
          "internalType": "string",
          "name": "_name",
          "type": "string"
        }
      ],
      "name": "updateName",
      "outputs": [],
      "stateMutability": "nonpayable",
      "type": "function"
    },
    {
      "inputs": [
        {
          "internalType": "uint256",
          "name": "postId",
          "type": "uint256"
        },
        {
          "internalType": "string",
          "name": "title",
          "type": "string"
        },
        {
          "internalType": "string",
          "name": "hash",
          "type": "string"
        },
        {
          "internalType": "bool",
          "name": "published",
          "type": "bool"
        }
      ],
      "name": "updatePost",
      "outputs": [],
      "stateMutability": "nonpayable",
      "type": "function"
    }
  ],
  "bytecode": "0x60806040523480156200001157600080fd5b5060405162001b8938038062001b898339818101604052810190620000379190620002d5565b620000836040518060400160405280601981526020017f4465706c6f79696e6720426c6f672077697468206e616d653a0000000000000081525082620000e460201b62000ae61760201c565b80600090805190602001906200009b929190620001b3565b5033600160006101000a81548173ffffffffffffffffffffffffffffffffffffffff021916908373ffffffffffffffffffffffffffffffffffffffff1602179055505062000522565b620001868282604051602401620000fd9291906200035b565b6040516020818303038152906040527f4b5c4277000000000000000000000000000000000000000000000000000000007bffffffffffffffffffffffffffffffffffffffffffffffffffffffff19166020820180517bffffffffffffffffffffffffffffffffffffffffffffffffffffffff83818316178352505050506200018a60201b60201c565b5050565b60008151905060006a636f6e736f6c652e6c6f679050602083016000808483855afa5050505050565b828054620001c19062000447565b90600052602060002090601f016020900481019282620001e5576000855562000231565b82601f106200020057805160ff191683800117855562000231565b8280016001018555821562000231579182015b828111156200023057825182559160200191906001019062000213565b5b50905062000240919062000244565b5090565b5b808211156200025f57600081600090555060010162000245565b5090565b60006200027a6200027484620003bf565b62000396565b9050828152602081018484840111156200029357600080fd5b620002a084828562000411565b509392505050565b600082601f830112620002ba57600080fd5b8151620002cc84826020860162000263565b91505092915050565b600060208284031215620002e857600080fd5b600082015167ffffffffffffffff8111156200030357600080fd5b6200031184828501620002a8565b91505092915050565b60006200032782620003f5565b62000333818562000400565b93506200034581856020860162000411565b620003508162000511565b840191505092915050565b600060408201905081810360008301526200037781856200031a565b905081810360208301526200038d81846200031a565b90509392505050565b6000620003a2620003b5565b9050620003b082826200047d565b919050565b6000604051905090565b600067ffffffffffffffff821115620003dd57620003dc620004e2565b5b620003e88262000511565b9050602081019050919050565b600081519050919050565b600082825260208201905092915050565b60005b838110156200043157808201518184015260208101905062000414565b8381111562000441576000848401525b50505050565b600060028204905060018216806200046057607f821691505b60208210811415620004775762000476620004b3565b5b50919050565b620004888262000511565b810181811067ffffffffffffffff82111715620004aa57620004a9620004e2565b5b80604052505050565b7f4e487b7100000000000000000000000000000000000000000000000000000000600052602260045260246000fd5b7f4e487b7100000000000000000000000000000000000000000000000000000000600052604160045260246000fd5b6000601f19601f8301169050919050565b61165780620005326000396000f3fe608060405234801561001057600080fd5b50600436106100885760003560e01c80638da5cb5b1161005b5780638da5cb5b14610113578063abaddd7f14610131578063cd349fe91461014f578063f2fde38b1461016b57610088565b806306fdde031461008d578063392338f5146100ab57806344828659146100c757806384da92a7146100f7575b600080fd5b610095610187565b6040516100a291906111d8565b60405180910390f35b6100c560048036038101906100c09190610e3a565b610215565b005b6100e160048036038101906100dc9190610df9565b6103d0565b6040516100ee9190611231565b60405180910390f35b610111600480360381019061010c9190610df9565b610551565b005b61011b61056b565b604051610128919061119b565b60405180910390f35b610139610591565b60405161014691906111b6565b60405180910390f35b61016960048036038101906101649190610ea6565b61081a565b005b61018560048036038101906101809190610dd0565b610a48565b005b6000805461019490611492565b80601f01602080910402602001604051908101604052809291908181526020018280546101c090611492565b801561020d5780601f106101e25761010080835404028352916020019161020d565b820191906000526020600020905b8154815290600101906020018083116101f057829003601f168201915b505050505081565b600160009054906101000a900473ffffffffffffffffffffffffffffffffffffffff1673ffffffffffffffffffffffffffffffffffffffff163373ffffffffffffffffffffffffffffffffffffffff161461026f57600080fd5b6102796002610b82565b60006102856002610b98565b90506000600360008381526020019081526020016000209050818160000181905550838160010190805190602001906102bf929190610bcf565b5060018160030160006101000a81548160ff021916908315150217905550828160020190805190602001906102f5929190610bcf565b50806004846040516103079190611184565b908152602001604051809103902060008201548160000155600182018160010190805461033390611492565b61033e929190610c55565b50600282018160020190805461035390611492565b61035e929190610c55565b506003820160009054906101000a900460ff168160030160006101000a81548160ff0219169083151502179055509050507fe6851f0b99a9d86e5d68a97f65218980851216ce297f789c6b6b7e82ca1d90c88285856040516103c293929190611253565b60405180910390a150505050565b6103d8610ce2565b6004826040516103e89190611184565b90815260200160405180910390206040518060800160405290816000820154815260200160018201805461041b90611492565b80601f016020809104026020016040519081016040528092919081815260200182805461044790611492565b80156104945780601f1061046957610100808354040283529160200191610494565b820191906000526020600020905b81548152906001019060200180831161047757829003601f168201915b505050505081526020016002820180546104ad90611492565b80601f01602080910402602001604051908101604052809291908181526020018280546104d990611492565b80156105265780601f106104fb57610100808354040283529160200191610526565b820191906000526020600020905b81548152906001019060200180831161050957829003601f168201915b505050505081526020016003820160009054906101000a900460ff1615151515815250509050919050565b8060009080519060200190610567929190610bcf565b5050565b600160009054906101000a900473ffffffffffffffffffffffffffffffffffffffff1681565b6060600061059f6002610b98565b90506000808267ffffffffffffffff8111156105e4577f4e487b7100000000000000000000000000000000000000000000000000000000600052604160045260246000fd5b60405190808252806020026020018201604052801561061d57816020015b61060a610ce2565b8152602001906001900390816106025790505b50905060005b8381101561081057600060018261063a91906113b2565b90506000600360008381526020019081526020016000209050806040518060800160405290816000820154815260200160018201805461067990611492565b80601f01602080910402602001604051908101604052809291908181526020018280546106a590611492565b80156106f25780601f106106c7576101008083540402835291602001916106f2565b820191906000526020600020905b8154815290600101906020018083116106d557829003601f168201915b5050505050815260200160028201805461070b90611492565b80601f016020809104026020016040519081016040528092919081815260200182805461073790611492565b80156107845780601f1061075957610100808354040283529160200191610784565b820191906000526020600020905b81548152906001019060200180831161076757829003601f168201915b505050505081526020016003820160009054906101000a900460ff1615151515815250508486815181106107e1577f4e487b7100000000000000000000000000000000000000000000000000000000600052603260045260246000fd5b60200260200101819052506001856107f991906113b2565b945050508080610808906114f5565b915050610623565b5080935050505090565b600160009054906101000a900473ffffffffffffffffffffffffffffffffffffffff1673ffffffffffffffffffffffffffffffffffffffff163373ffffffffffffffffffffffffffffffffffffffff161461087457600080fd5b6000600360008681526020019081526020016000209050838160010190805190602001906108a3929190610bcf565b50818160030160006101000a81548160ff021916908315150217905550828160020190805190602001906108d8929190610bcf565b50806003600087815260200190815260200160002060008201548160000155600182018160010190805461090b90611492565b610916929190610c55565b50600282018160020190805461092b90611492565b610936929190610c55565b506003820160009054906101000a900460ff168160030160006101000a81548160ff021916908315150217905550905050806004846040516109789190611184565b90815260200160405180910390206000820154816000015560018201816001019080546109a490611492565b6109af929190610c55565b5060028201816002019080546109c490611492565b6109cf929190610c55565b506003820160009054906101000a900460ff168160030160006101000a81548160ff0219169083151502179055509050507f9f8eb93fc073102bbd3072664634ab200707a4f11d94aace9cc8d0e4d019eff58160000154858585604051610a399493929190611298565b60405180910390a15050505050565b600160009054906101000a900473ffffffffffffffffffffffffffffffffffffffff1673ffffffffffffffffffffffffffffffffffffffff163373ffffffffffffffffffffffffffffffffffffffff1614610aa257600080fd5b80600160006101000a81548173ffffffffffffffffffffffffffffffffffffffff021916908373ffffffffffffffffffffffffffffffffffffffff16021790555050565b610b7e8282604051602401610afc9291906111fa565b6040516020818303038152906040527f4b5c4277000000000000000000000000000000000000000000000000000000007bffffffffffffffffffffffffffffffffffffffffffffffffffffffff19166020820180517bffffffffffffffffffffffffffffffffffffffffffffffffffffffff8381831617835250505050610ba6565b5050565b6001816000016000828254019250508190555050565b600081600001549050919050565b60008151905060006a636f6e736f6c652e6c6f679050602083016000808483855afa5050505050565b828054610bdb90611492565b90600052602060002090601f016020900481019282610bfd5760008555610c44565b82601f10610c1657805160ff1916838001178555610c44565b82800160010185558215610c44579182015b82811115610c43578251825591602001919060010190610c28565b5b509050610c519190610d0c565b5090565b828054610c6190611492565b90600052602060002090601f016020900481019282610c835760008555610cd1565b82601f10610c945780548555610cd1565b82800160010185558215610cd157600052602060002091601f016020900482015b82811115610cd0578254825591600101919060010190610cb5565b5b509050610cde9190610d0c565b5090565b60405180608001604052806000815260200160608152602001606081526020016000151581525090565b5b80821115610d25576000816000905550600101610d0d565b5090565b6000610d3c610d3784611310565b6112eb565b905082815260208101848484011115610d5457600080fd5b610d5f848285611450565b509392505050565b600081359050610d76816115dc565b92915050565b600081359050610d8b816115f3565b92915050565b600082601f830112610da257600080fd5b8135610db2848260208601610d29565b91505092915050565b600081359050610dca8161160a565b92915050565b600060208284031215610de257600080fd5b6000610df084828501610d67565b91505092915050565b600060208284031215610e0b57600080fd5b600082013567ffffffffffffffff811115610e2557600080fd5b610e3184828501610d91565b91505092915050565b60008060408385031215610e4d57600080fd5b600083013567ffffffffffffffff811115610e6757600080fd5b610e7385828601610d91565b925050602083013567ffffffffffffffff811115610e9057600080fd5b610e9c85828601610d91565b9150509250929050565b60008060008060808587031215610ebc57600080fd5b6000610eca87828801610dbb565b945050602085013567ffffffffffffffff811115610ee757600080fd5b610ef387828801610d91565b935050604085013567ffffffffffffffff811115610f1057600080fd5b610f1c87828801610d91565b9250506060610f2d87828801610d7c565b91505092959194509250565b6000610f458383611092565b905092915050565b610f5681611408565b82525050565b6000610f6782611351565b610f718185611374565b935083602082028501610f8385611341565b8060005b85811015610fbf5784840389528151610fa08582610f39565b9450610fab83611367565b925060208a01995050600181019050610f87565b50829750879550505050505092915050565b610fda8161141a565b82525050565b610fe98161141a565b82525050565b6000610ffa8261135c565b6110048185611385565b935061101481856020860161145f565b61101d816115cb565b840191505092915050565b60006110338261135c565b61103d8185611396565b935061104d81856020860161145f565b611056816115cb565b840191505092915050565b600061106c8261135c565b61107681856113a7565b935061108681856020860161145f565b80840191505092915050565b60006080830160008301516110aa6000860182611166565b50602083015184820360208601526110c28282610fef565b915050604083015184820360408601526110dc8282610fef565b91505060608301516110f16060860182610fd1565b508091505092915050565b60006080830160008301516111146000860182611166565b506020830151848203602086015261112c8282610fef565b915050604083015184820360408601526111468282610fef565b915050606083015161115b6060860182610fd1565b508091505092915050565b61116f81611446565b82525050565b61117e81611446565b82525050565b60006111908284611061565b915081905092915050565b60006020820190506111b06000830184610f4d565b92915050565b600060208201905081810360008301526111d08184610f5c565b905092915050565b600060208201905081810360008301526111f28184611028565b905092915050565b600060408201905081810360008301526112148185611028565b905081810360208301526112288184611028565b90509392505050565b6000602082019050818103600083015261124b81846110fc565b905092915050565b60006060820190506112686000830186611175565b818103602083015261127a8185611028565b9050818103604083015261128e8184611028565b9050949350505050565b60006080820190506112ad6000830187611175565b81810360208301526112bf8186611028565b905081810360408301526112d38185611028565b90506112e26060830184610fe0565b95945050505050565b60006112f5611306565b905061130182826114c4565b919050565b6000604051905090565b600067ffffffffffffffff82111561132b5761132a61159c565b5b611334826115cb565b9050602081019050919050565b6000819050602082019050919050565b600081519050919050565b600081519050919050565b6000602082019050919050565b600082825260208201905092915050565b600082825260208201905092915050565b600082825260208201905092915050565b600081905092915050565b60006113bd82611446565b91506113c883611446565b9250827fffffffffffffffffffffffffffffffffffffffffffffffffffffffffffffffff038211156113fd576113fc61153e565b5b828201905092915050565b600061141382611426565b9050919050565b60008115159050919050565b600073ffffffffffffffffffffffffffffffffffffffff82169050919050565b6000819050919050565b82818337600083830152505050565b60005b8381101561147d578082015181840152602081019050611462565b8381111561148c576000848401525b50505050565b600060028204905060018216806114aa57607f821691505b602082108114156114be576114bd61156d565b5b50919050565b6114cd826115cb565b810181811067ffffffffffffffff821117156114ec576114eb61159c565b5b80604052505050565b600061150082611446565b91507fffffffffffffffffffffffffffffffffffffffffffffffffffffffffffffffff8214156115335761153261153e565b5b600182019050919050565b7f4e487b7100000000000000000000000000000000000000000000000000000000600052601160045260246000fd5b7f4e487b7100000000000000000000000000000000000000000000000000000000600052602260045260246000fd5b7f4e487b7100000000000000000000000000000000000000000000000000000000600052604160045260246000fd5b6000601f19601f8301169050919050565b6115e581611408565b81146115f057600080fd5b50565b6115fc8161141a565b811461160757600080fd5b50565b61161381611446565b811461161e57600080fd5b5056fea2646970667358221220c54b3119eab59fe849c269fe8b4df1af2d3ba020b99f86365d990ceed41c856d64736f6c63430008040033",
  "linkReferences": {},
  "deployedLinkReferences": {}
}